{
  "_format": "hh-sol-artifact-1",
  "contractName": "CharityDonation",
  "sourceName": "contracts/CharityDonation.sol",
  "abi": [
    {
      "inputs": [
        {
          "internalType": "address",
          "name": "_admin",
          "type": "address"
        }
      ],
      "stateMutability": "nonpayable",
      "type": "constructor"
    },
    {
      "anonymous": false,
      "inputs": [
        {
          "indexed": true,
          "internalType": "uint256",
          "name": "id",
          "type": "uint256"
        }
      ],
      "name": "CampaignApproved",
      "type": "event"
    },
    {
      "anonymous": false,
      "inputs": [
        {
          "indexed": true,
          "internalType": "uint256",
          "name": "id",
          "type": "uint256"
        }
      ],
      "name": "CampaignBlocked",
      "type": "event"
    },
    {
      "anonymous": false,
      "inputs": [
        {
          "indexed": true,
          "internalType": "uint256",
          "name": "id",
          "type": "uint256"
        },
        {
          "indexed": true,
          "internalType": "address",
          "name": "receiver",
          "type": "address"
        },
        {
          "indexed": false,
          "internalType": "string",
          "name": "cause",
          "type": "string"
        },
        {
          "indexed": false,
          "internalType": "uint256",
          "name": "targetAmount",
          "type": "uint256"
        },
        {
          "indexed": false,
          "internalType": "uint256",
          "name": "deadline",
          "type": "uint256"
        }
      ],
      "name": "CampaignCreated",
      "type": "event"
    },
    {
      "anonymous": false,
      "inputs": [
        {
          "indexed": true,
          "internalType": "uint256",
          "name": "campaignId",
          "type": "uint256"
        },
        {
          "indexed": true,
          "internalType": "address",
          "name": "donor",
          "type": "address"
        },
        {
          "indexed": false,
          "internalType": "uint256",
          "name": "amount",
          "type": "uint256"
        }
      ],
      "name": "DonationReceived",
      "type": "event"
    },
    {
      "anonymous": false,
      "inputs": [
        {
          "indexed": true,
          "internalType": "uint256",
          "name": "campaignId",
          "type": "uint256"
        },
        {
          "indexed": true,
          "internalType": "address",
          "name": "receiver",
          "type": "address"
        },
        {
          "indexed": false,
          "internalType": "uint256",
          "name": "amount",
          "type": "uint256"
        }
      ],
      "name": "FundsWithdrawn",
      "type": "event"
    },
    {
      "anonymous": false,
      "inputs": [
        {
          "indexed": true,
          "internalType": "uint256",
          "name": "campaignId",
          "type": "uint256"
        },
        {
          "indexed": true,
          "internalType": "address",
          "name": "donor",
          "type": "address"
        },
        {
          "indexed": false,
          "internalType": "uint256",
          "name": "amount",
          "type": "uint256"
        }
      ],
      "name": "RefundClaimed",
      "type": "event"
    },
    {
      "inputs": [],
      "name": "admin",
      "outputs": [
        {
          "internalType": "address",
          "name": "",
          "type": "address"
        }
      ],
      "stateMutability": "view",
      "type": "function"
    },
    {
      "inputs": [
        {
          "internalType": "uint256",
          "name": "_campaignId",
          "type": "uint256"
        }
      ],
      "name": "approveCampaign",
      "outputs": [],
      "stateMutability": "nonpayable",
      "type": "function"
    },
    {
      "inputs": [
        {
          "internalType": "uint256",
          "name": "_campaignId",
          "type": "uint256"
        }
      ],
      "name": "blockCampaign",
      "outputs": [],
      "stateMutability": "nonpayable",
      "type": "function"
    },
    {
      "inputs": [
        {
          "internalType": "uint256",
          "name": "_campaignId",
          "type": "uint256"
        }
      ],
      "name": "claimRefund",
      "outputs": [],
      "stateMutability": "nonpayable",
      "type": "function"
    },
    {
      "inputs": [
        {
          "internalType": "address payable",
          "name": "_receiver",
          "type": "address"
        },
        {
          "internalType": "string",
          "name": "_cause",
          "type": "string"
        },
        {
          "internalType": "string",
          "name": "_description",
          "type": "string"
        },
        {
          "internalType": "uint256",
          "name": "_targetAmount",
          "type": "uint256"
        },
        {
          "internalType": "uint256",
          "name": "_deadline",
          "type": "uint256"
        }
      ],
      "name": "createCampaign",
      "outputs": [
        {
          "internalType": "uint256",
          "name": "",
          "type": "uint256"
        }
      ],
      "stateMutability": "nonpayable",
      "type": "function"
    },
    {
      "inputs": [
        {
          "internalType": "uint256",
          "name": "_campaignId",
          "type": "uint256"
        }
      ],
      "name": "donate",
      "outputs": [],
      "stateMutability": "payable",
      "type": "function"
    },
    {
      "inputs": [],
      "name": "getActiveCampaigns",
      "outputs": [
        {
          "components": [
            {
              "internalType": "uint256",
              "name": "id",
              "type": "uint256"
            },
            {
              "internalType": "address payable",
              "name": "receiver",
              "type": "address"
            },
            {
              "internalType": "string",
              "name": "cause",
              "type": "string"
            },
            {
              "internalType": "string",
              "name": "description",
              "type": "string"
            },
            {
              "internalType": "uint256",
              "name": "targetAmount",
              "type": "uint256"
            },
            {
              "internalType": "uint256",
              "name": "deadline",
              "type": "uint256"
            },
            {
              "internalType": "uint256",
              "name": "amountRaised",
              "type": "uint256"
            },
            {
              "internalType": "bool",
              "name": "fundsWithdrawn",
              "type": "bool"
            },
            {
              "internalType": "address",
              "name": "creator",
              "type": "address"
            },
            {
              "internalType": "enum CharityDonation.CampaignStatus",
              "name": "status",
              "type": "uint8"
            }
          ],
          "internalType": "struct CharityDonation.Campaign[]",
          "name": "",
          "type": "tuple[]"
        }
      ],
      "stateMutability": "view",
      "type": "function"
    },
    {
      "inputs": [],
      "name": "getAllCampaigns",
      "outputs": [
        {
          "components": [
            {
              "internalType": "uint256",
              "name": "id",
              "type": "uint256"
            },
            {
              "internalType": "address payable",
              "name": "receiver",
              "type": "address"
            },
            {
              "internalType": "string",
              "name": "cause",
              "type": "string"
            },
            {
              "internalType": "string",
              "name": "description",
              "type": "string"
            },
            {
              "internalType": "uint256",
              "name": "targetAmount",
              "type": "uint256"
            },
            {
              "internalType": "uint256",
              "name": "deadline",
              "type": "uint256"
            },
            {
              "internalType": "uint256",
              "name": "amountRaised",
              "type": "uint256"
            },
            {
              "internalType": "bool",
              "name": "fundsWithdrawn",
              "type": "bool"
            },
            {
              "internalType": "address",
              "name": "creator",
              "type": "address"
            },
            {
              "internalType": "enum CharityDonation.CampaignStatus",
              "name": "status",
              "type": "uint8"
            }
          ],
          "internalType": "struct CharityDonation.Campaign[]",
          "name": "",
          "type": "tuple[]"
        }
      ],
      "stateMutability": "view",
      "type": "function"
    },
    {
      "inputs": [
        {
          "internalType": "uint256",
          "name": "_campaignId",
          "type": "uint256"
        }
      ],
      "name": "getCampaign",
      "outputs": [
        {
          "components": [
            {
              "internalType": "uint256",
              "name": "id",
              "type": "uint256"
            },
            {
              "internalType": "address payable",
              "name": "receiver",
              "type": "address"
            },
            {
              "internalType": "string",
              "name": "cause",
              "type": "string"
            },
            {
              "internalType": "string",
              "name": "description",
              "type": "string"
            },
            {
              "internalType": "uint256",
              "name": "targetAmount",
              "type": "uint256"
            },
            {
              "internalType": "uint256",
              "name": "deadline",
              "type": "uint256"
            },
            {
              "internalType": "uint256",
              "name": "amountRaised",
              "type": "uint256"
            },
            {
              "internalType": "bool",
              "name": "fundsWithdrawn",
              "type": "bool"
            },
            {
              "internalType": "address",
              "name": "creator",
              "type": "address"
            },
            {
              "internalType": "enum CharityDonation.CampaignStatus",
              "name": "status",
              "type": "uint8"
            }
          ],
          "internalType": "struct CharityDonation.Campaign",
          "name": "",
          "type": "tuple"
        }
      ],
      "stateMutability": "view",
      "type": "function"
    },
    {
      "inputs": [
        {
          "internalType": "enum CharityDonation.CampaignStatus",
          "name": "statusFilter",
          "type": "uint8"
        }
      ],
      "name": "getCampaignsByStatus",
      "outputs": [
        {
          "components": [
            {
              "internalType": "uint256",
              "name": "id",
              "type": "uint256"
            },
            {
              "internalType": "address payable",
              "name": "receiver",
              "type": "address"
            },
            {
              "internalType": "string",
              "name": "cause",
              "type": "string"
            },
            {
              "internalType": "string",
              "name": "description",
              "type": "string"
            },
            {
              "internalType": "uint256",
              "name": "targetAmount",
              "type": "uint256"
            },
            {
              "internalType": "uint256",
              "name": "deadline",
              "type": "uint256"
            },
            {
              "internalType": "uint256",
              "name": "amountRaised",
              "type": "uint256"
            },
            {
              "internalType": "bool",
              "name": "fundsWithdrawn",
              "type": "bool"
            },
            {
              "internalType": "address",
              "name": "creator",
              "type": "address"
            },
            {
              "internalType": "enum CharityDonation.CampaignStatus",
              "name": "status",
              "type": "uint8"
            }
          ],
          "internalType": "struct CharityDonation.Campaign[]",
          "name": "",
          "type": "tuple[]"
        }
      ],
      "stateMutability": "view",
      "type": "function"
    },
    {
      "inputs": [],
      "name": "getCompletedCampaigns",
      "outputs": [
        {
          "components": [
            {
              "internalType": "uint256",
              "name": "id",
              "type": "uint256"
            },
            {
              "internalType": "address payable",
              "name": "receiver",
              "type": "address"
            },
            {
              "internalType": "string",
              "name": "cause",
              "type": "string"
            },
            {
              "internalType": "string",
              "name": "description",
              "type": "string"
            },
            {
              "internalType": "uint256",
              "name": "targetAmount",
              "type": "uint256"
            },
            {
              "internalType": "uint256",
              "name": "deadline",
              "type": "uint256"
            },
            {
              "internalType": "uint256",
              "name": "amountRaised",
              "type": "uint256"
            },
            {
              "internalType": "bool",
              "name": "fundsWithdrawn",
              "type": "bool"
            },
            {
              "internalType": "address",
              "name": "creator",
              "type": "address"
            },
            {
              "internalType": "enum CharityDonation.CampaignStatus",
              "name": "status",
              "type": "uint8"
            }
          ],
          "internalType": "struct CharityDonation.Campaign[]",
          "name": "",
          "type": "tuple[]"
        }
      ],
      "stateMutability": "view",
      "type": "function"
    },
    {
      "inputs": [
        {
          "internalType": "uint256",
          "name": "_campaignId",
          "type": "uint256"
        },
        {
          "internalType": "address",
          "name": "_donor",
          "type": "address"
        }
      ],
      "name": "getDonationAmount",
      "outputs": [
        {
          "internalType": "uint256",
          "name": "",
          "type": "uint256"
        }
      ],
      "stateMutability": "view",
      "type": "function"
    },
    {
      "inputs": [
        {
          "internalType": "uint256",
          "name": "_campaignId",
          "type": "uint256"
        }
      ],
      "name": "getDonations",
      "outputs": [
        {
          "components": [
            {
              "internalType": "address",
              "name": "donor",
              "type": "address"
            },
            {
              "internalType": "uint256",
              "name": "amount",
              "type": "uint256"
            },
            {
              "internalType": "uint256",
              "name": "timestamp",
              "type": "uint256"
            }
          ],
          "internalType": "struct CharityDonation.Donation[]",
          "name": "",
          "type": "tuple[]"
        }
      ],
      "stateMutability": "view",
      "type": "function"
    },
    {
      "inputs": [],
      "name": "getFailedCampaigns",
      "outputs": [
        {
          "components": [
            {
              "internalType": "uint256",
              "name": "id",
              "type": "uint256"
            },
            {
              "internalType": "address payable",
              "name": "receiver",
              "type": "address"
            },
            {
              "internalType": "string",
              "name": "cause",
              "type": "string"
            },
            {
              "internalType": "string",
              "name": "description",
              "type": "string"
            },
            {
              "internalType": "uint256",
              "name": "targetAmount",
              "type": "uint256"
            },
            {
              "internalType": "uint256",
              "name": "deadline",
              "type": "uint256"
            },
            {
              "internalType": "uint256",
              "name": "amountRaised",
              "type": "uint256"
            },
            {
              "internalType": "bool",
              "name": "fundsWithdrawn",
              "type": "bool"
            },
            {
              "internalType": "address",
              "name": "creator",
              "type": "address"
            },
            {
              "internalType": "enum CharityDonation.CampaignStatus",
              "name": "status",
              "type": "uint8"
            }
          ],
          "internalType": "struct CharityDonation.Campaign[]",
          "name": "",
          "type": "tuple[]"
        }
      ],
      "stateMutability": "view",
      "type": "function"
    },
    {
      "inputs": [],
      "name": "getNextCampaignId",
      "outputs": [
        {
          "internalType": "uint256",
          "name": "",
          "type": "uint256"
        }
      ],
      "stateMutability": "view",
      "type": "function"
    },
    {
      "inputs": [
        {
          "internalType": "uint256",
          "name": "_campaignId",
          "type": "uint256"
        }
      ],
      "name": "withdrawFunds",
      "outputs": [],
      "stateMutability": "nonpayable",
      "type": "function"
    }
  ],
  "bytecode": "0x60806040523480156200001157600080fd5b50604051620021653803806200216583398101604081905262000034916200007c565b6001600160a01b038116156200004b57806200004d565b335b600080546001600160a01b0319166001600160a01b0392909216919091179055506001808055600755620000ae565b6000602082840312156200008f57600080fd5b81516001600160a01b0381168114620000a757600080fd5b9392505050565b6120a780620000be6000396000f3fe6080604052600436106100f35760003560e01c80637977c7921161008a578063e43826d811610059578063e43826d81461027d578063ee4e1b531461029d578063f14faf6f146102bd578063f851a440146102d057600080fd5b80637977c7921461021e57806386cdf6041461023357806398bf4adf14610248578063c362b1561461026857600080fd5b80634e95267a116100c65780634e95267a1461018f5780635598f8cc146101a4578063596d9ce2146101d15780635b7baf64146101fe57600080fd5b8063075843c3146100f8578063155dd5ee1461012b5780633c3ae5b81461014d5780634e1821571461016f575b600080fd5b34801561010457600080fd5b50610118610113366004611b1f565b610308565b6040519081526020015b60405180910390f35b34801561013757600080fd5b5061014b610146366004611bb1565b610640565b005b34801561015957600080fd5b50610162610895565b6040516101229190611cf9565b34801561017b57600080fd5b5061016261018a366004611d5b565b6108a6565b34801561019b57600080fd5b50600154610118565b3480156101b057600080fd5b506101c46101bf366004611bb1565b610c25565b6040516101229190611d83565b3480156101dd57600080fd5b506101f16101ec366004611bb1565b610e34565b6040516101229190611d96565b34801561020a57600080fd5b5061014b610219366004611bb1565b610eee565b34801561022a57600080fd5b5061016261122d565b34801561023f57600080fd5b50610162611239565b34801561025457600080fd5b5061014b610263366004611bb1565b6114cd565b34801561027457600080fd5b5061016261161c565b34801561028957600080fd5b50610118610298366004611df8565b611628565b3480156102a957600080fd5b5061014b6102b8366004611bb1565b611682565b61014b6102cb366004611bb1565b6117a6565b3480156102dc57600080fd5b506000546102f0906001600160a01b031681565b6040516001600160a01b039091168152602001610122565b60006001600160a01b0388166103585760405162461bcd60e51b815260206004820152601060248201526f34b73b30b634b2103932b1b2b4bb32b960811b60448201526064015b60405180910390fd5b6000831161039d5760405162461bcd60e51b81526020600482015260126024820152710746172676574206d757374206265203e20360741b604482015260640161034f565b4282116103ec5760405162461bcd60e51b815260206004820152601a60248201527f646561646c696e65206d75737420626520696e20667574757265000000000000604482015260640161034f565b60018054600091826103fd83611e3e565b9190505590506040518061014001604052808281526020018a6001600160a01b0316815260200189898080601f016020809104026020016040519081016040528093929190818152602001838380828437600092019190915250505090825250604080516020601f8a01819004810282018101909252888152918101919089908990819084018382808284376000920182905250938552505050602082018790526040820186905260608201819052608082018190523360a083015260c09091015260008281526002602081815260409283902084518155908401516001820180546001600160a01b0319166001600160a01b03909216919091179055918301519082019061050c9082611ef0565b50606082015160038201906105219082611ef0565b50608082015160048083019190915560a0830151600583015560c0830151600683015560e0830151600783018054610100808701516001600160a01b031602610100600160a81b0319931515939093166001600160a81b031990911617919091178082556101208501519260ff60a81b1990911690600160a81b9084908111156105ad576105ad611c10565b021790555050600380546001810182556000919091527fc2575a0e9e593c00f959f8c92f12db2869c3395a3b0502d05e2516446f71f85b01829055506040516001600160a01b038a169082907fdc26653af5b99b2da33e2ad69ee6600d9aeccc82b034501db4338309615ca2389061062c908c908c908a908a90611fb0565b60405180910390a398975050505050505050565b6002600754036106625760405162461bcd60e51b815260040161034f90611ff0565b6002600755808015801590610678575060015481105b6106945760405162461bcd60e51b815260040161034f90612018565b600082815260026020526040902060018101546001600160a01b031633146106ee5760405162461bcd60e51b815260206004820152600d60248201526c37b7363c903932b1b2b4bb32b960991b604482015260640161034f565b600781015460ff16156107375760405162461bcd60e51b815260206004820152601160248201527030b63932b0b23c903bb4ba34323930bbb760791b604482015260640161034f565b60036007820154600160a81b900460ff16600481111561075957610759611c10565b146107965760405162461bcd60e51b815260206004820152600d60248201526c1b9bdd0818dbdb5c1b195d1959609a1b604482015260640161034f565b600681015460078201805460ff191660019081179091558201546040516000916001600160a01b03169083908381818185875af1925050503d80600081146107fa576040519150601f19603f3d011682016040523d82523d6000602084013e6107ff565b606091505b50509050806108425760405162461bcd60e51b815260206004820152600f60248201526e1d1c985b9cd9995c8819985a5b1959608a1b604482015260640161034f565b60018301546040518381526001600160a01b039091169086907ff440aec6b52895984d061d622e6edeba6210f7c3e059be920663140c084560d7906020015b60405180910390a350506001600755505050565b60606108a160036108a6565b905090565b60606000805b60035481101561093f578360048111156108c8576108c8611c10565b60026000600384815481106108df576108df612042565b9060005260206000200154815260200190815260200160002060070160159054906101000a900460ff16600481111561091a5761091a611c10565b0361092d578161092981611e3e565b9250505b8061093781611e3e565b9150506108ac565b5060008167ffffffffffffffff81111561095b5761095b611e57565b60405190808252806020026020018201604052801561099457816020015b610981611a47565b8152602001906001900390816109795790505b5090506000805b600354811015610c1b576000600382815481106109ba576109ba612042565b906000526020600020015490508660048111156109d9576109d9611c10565b600082815260026020526040902060070154600160a81b900460ff166004811115610a0657610a06611c10565b03610c08576000818152600260208181526040928390208351610140810185528154815260018201546001600160a01b03169281019290925291820180549193840191610a5290611e6d565b80601f0160208091040260200160405190810160405280929190818152602001828054610a7e90611e6d565b8015610acb5780601f10610aa057610100808354040283529160200191610acb565b820191906000526020600020905b815481529060010190602001808311610aae57829003601f168201915b50505050508152602001600382018054610ae490611e6d565b80601f0160208091040260200160405190810160405280929190818152602001828054610b1090611e6d565b8015610b5d5780601f10610b3257610100808354040283529160200191610b5d565b820191906000526020600020905b815481529060010190602001808311610b4057829003601f168201915b505050918352505060048281015460208301526005830154604083015260068301546060830152600783015460ff808216151560808501526001600160a01b0361010083041660a085015260c090930192600160a81b9091041690811115610bc757610bc7611c10565b6004811115610bd857610bd8611c10565b81525050848481518110610bee57610bee612042565b60200260200101819052508280610c0490611e3e565b9350505b5080610c1381611e3e565b91505061099b565b5090949350505050565b610c2d611a47565b81600081118015610c3f575060015481105b610c5b5760405162461bcd60e51b815260040161034f90612018565b6000838152600260208181526040928390208351610140810185528154815260018201546001600160a01b03169281019290925291820180549193840191610ca290611e6d565b80601f0160208091040260200160405190810160405280929190818152602001828054610cce90611e6d565b8015610d1b5780601f10610cf057610100808354040283529160200191610d1b565b820191906000526020600020905b815481529060010190602001808311610cfe57829003601f168201915b50505050508152602001600382018054610d3490611e6d565b80601f0160208091040260200160405190810160405280929190818152602001828054610d6090611e6d565b8015610dad5780601f10610d8257610100808354040283529160200191610dad565b820191906000526020600020905b815481529060010190602001808311610d9057829003601f168201915b505050918352505060048281015460208301526005830154604083015260068301546060830152600783015460ff808216151560808501526001600160a01b0361010083041660a085015260c090930192600160a81b9091041690811115610e1757610e17611c10565b6004811115610e2857610e28611c10565b90525091505b50919050565b606081600081118015610e48575060015481105b610e645760405162461bcd60e51b815260040161034f90612018565b600083815260046020908152604080832080548251818502810185019093528083529193909284015b82821015610ee2576000848152602090819020604080516060810182526003860290920180546001600160a01b0316835260018082015484860152600290910154918301919091529083529092019101610e8d565b50505050915050919050565b600260075403610f105760405162461bcd60e51b815260040161034f90611ff0565b6002600755808015801590610f26575060015481105b610f425760405162461bcd60e51b815260040161034f90612018565b600082815260026020526040902060058101544211610f925760405162461bcd60e51b815260206004820152600c60248201526b7374696c6c2061637469766560a01b604482015260640161034f565b8060040154816006015410610fdf5760405162461bcd60e51b815260206004820152601360248201527218d85b5c185a59db881cdd58d8d95cdcd99d5b606a1b604482015260640161034f565b60026007820154600160a81b900460ff16600481111561100157611001611c10565b0361104e5760405162461bcd60e51b815260206004820152601e60248201527f626c6f636b65642063616d706169676e7320646f6e277420726566756e640000604482015260640161034f565b6000838152600560209081526040808320338452909152902054806110a35760405162461bcd60e51b815260206004820152600b60248201526a3737903237b730ba34b7b760a91b604482015260640161034f565b600084815260066020908152604080832033845290915290205460ff16156110ff5760405162461bcd60e51b815260206004820152600f60248201526e185b1c9958591e4818db185a5b5959608a1b604482015260640161034f565b600084815260066020908152604080832033808552908352818420805460ff19166001179055878452600583528184208185529092528083208390555183908381818185875af1925050503d8060008114611176576040519150601f19603f3d011682016040523d82523d6000602084013e61117b565b606091505b50509050806111bc5760405162461bcd60e51b815260206004820152600d60248201526c1c99599d5b990819985a5b1959609a1b604482015260640161034f565b60046007840154600160a81b900460ff1660048111156111de576111de611c10565b146111f95760078301805460ff60a81b1916600160aa1b1790555b604051828152339086907ff3f402280ef0a7905e124aa621b65eaeb2725c343e8b36d398ed78c29daf285c90602001610881565b60606108a160046108a6565b60035460609060008167ffffffffffffffff81111561125a5761125a611e57565b60405190808252806020026020018201604052801561129357816020015b611280611a47565b8152602001906001900390816112785790505b50905060005b828110156114c65760026000600383815481106112b8576112b8612042565b6000918252602080832090910154835282810193909352604091820190208151610140810183528154815260018201546001600160a01b031693810193909352600281018054919284019161130c90611e6d565b80601f016020809104026020016040519081016040528092919081815260200182805461133890611e6d565b80156113855780601f1061135a57610100808354040283529160200191611385565b820191906000526020600020905b81548152906001019060200180831161136857829003601f168201915b5050505050815260200160038201805461139e90611e6d565b80601f01602080910402602001604051908101604052809291908181526020018280546113ca90611e6d565b80156114175780601f106113ec57610100808354040283529160200191611417565b820191906000526020600020905b8154815290600101906020018083116113fa57829003601f168201915b505050918352505060048281015460208301526005830154604083015260068301546060830152600783015460ff808216151560808501526001600160a01b0361010083041660a085015260c090930192600160a81b909104169081111561148157611481611c10565b600481111561149257611492611c10565b815250508282815181106114a8576114a8612042565b602002602001018190525080806114be90611e3e565b915050611299565b5092915050565b6000546001600160a01b031633146115145760405162461bcd60e51b815260206004820152600a60248201526937b7363c9030b236b4b760b11b604482015260640161034f565b80600081118015611526575060015481105b6115425760405162461bcd60e51b815260040161034f90612018565b6000828152600260205260408120906007820154600160a81b900460ff16600481111561157157611571611c10565b148061159c575060016007820154600160a81b900460ff16600481111561159a5761159a611c10565b145b6115d75760405162461bcd60e51b815260206004820152600c60248201526b63616e6e6f7420626c6f636b60a01b604482015260640161034f565b60078101805460ff60a81b1916600160a91b17905560405183907f2c2c5f55f06753091dcc3c123f3d54dbb4f08603b1b4cd2e9c6801fc3f5b644890600090a2505050565b60606108a160016108a6565b60008260008111801561163c575060015481105b6116585760405162461bcd60e51b815260040161034f90612018565b505060009182526005602090815260408084206001600160a01b0393909316845291905290205490565b6000546001600160a01b031633146116c95760405162461bcd60e51b815260206004820152600a60248201526937b7363c9030b236b4b760b11b604482015260640161034f565b806000811180156116db575060015481105b6116f75760405162461bcd60e51b815260040161034f90612018565b6000828152600260205260408120906007820154600160a81b900460ff16600481111561172657611726611c10565b146117615760405162461bcd60e51b815260206004820152600b60248201526a6e6f742070656e64696e6760a81b604482015260640161034f565b60078101805460ff60a81b1916600160a81b17905560405183907f3aa476b7499359259e68e236e4ba85f83ff093e3b6341e6a3f6f295d9cd6887790600090a2505050565b6002600754036117c85760405162461bcd60e51b815260040161034f90611ff0565b60026007558080158015906117de575060015481105b6117fa5760405162461bcd60e51b815260040161034f90612018565b600034116118415760405162461bcd60e51b81526020600482015260146024820152730646f6e6174696f6e206d757374206265203e20360641b604482015260640161034f565b600082815260026020526040902060016007820154600160a81b900460ff16600481111561187157611871611c10565b146118b65760405162461bcd60e51b815260206004820152601560248201527418d85b5c185a59db881b9bdd08185c1c1c9bdd9959605a1b604482015260640161034f565b80600501544211156118fb5760405162461bcd60e51b815260206004820152600e60248201526d18d85b5c185a59db88195b99195960921b604482015260640161034f565b60008381526004602090815260408083208151606081018352338082523482860181815242848701908152855460018082018855968a52888a209551600390910290950180546001600160a01b0319166001600160a01b039096169590951785559051948401949094559251600290920191909155878552600584528285209085529092528220805491929091611993908490612058565b92505081905550348160060160008282546119ae9190612058565b909155505060048101546006820154108015906119eb575060036007820154600160a81b900460ff1660048111156119e8576119e8611c10565b14155b15611a065760078101805460ff60a81b1916600360a81b1790555b604051348152339084907f0b5b4c52969ff7329ecf7ee536409fda87812b15a8622bc6e8cdeab3aee14a269060200160405180910390a35050600160075550565b6040518061014001604052806000815260200160006001600160a01b03168152602001606081526020016060815260200160008152602001600081526020016000815260200160001515815260200160006001600160a01b0316815260200160006004811115611ab957611ab9611c10565b905290565b6001600160a01b0381168114611ad357600080fd5b50565b60008083601f840112611ae857600080fd5b50813567ffffffffffffffff811115611b0057600080fd5b602083019150836020828501011115611b1857600080fd5b9250929050565b600080600080600080600060a0888a031215611b3a57600080fd5b8735611b4581611abe565b9650602088013567ffffffffffffffff80821115611b6257600080fd5b611b6e8b838c01611ad6565b909850965060408a0135915080821115611b8757600080fd5b50611b948a828b01611ad6565b989b979a5095989597966060870135966080013595509350505050565b600060208284031215611bc357600080fd5b5035919050565b6000815180845260005b81811015611bf057602081850181015186830182015201611bd4565b506000602082860101526020601f19601f83011685010191505092915050565b634e487b7160e01b600052602160045260246000fd5b60058110611c4457634e487b7160e01b600052602160045260246000fd5b9052565b6000610140825184526020830151611c6b60208601826001600160a01b03169052565b506040830151816040860152611c8382860182611bca565b91505060608301518482036060860152611c9d8282611bca565b9150506080830151608085015260a083015160a085015260c083015160c085015260e0830151611cd160e086018215159052565b50610100838101516001600160a01b03169085015261012080840151610c1b82870182611c26565b6000602080830181845280855180835260408601915060408160051b870101925083870160005b82811015611d4e57603f19888603018452611d3c858351611c48565b94509285019290850190600101611d20565b5092979650505050505050565b600060208284031215611d6d57600080fd5b813560058110611d7c57600080fd5b9392505050565b602081526000611d7c6020830184611c48565b602080825282518282018190526000919060409081850190868401855b82811015611deb57815180516001600160a01b0316855286810151878601528501518585015260609093019290850190600101611db3565b5091979650505050505050565b60008060408385031215611e0b57600080fd5b823591506020830135611e1d81611abe565b809150509250929050565b634e487b7160e01b600052601160045260246000fd5b600060018201611e5057611e50611e28565b5060010190565b634e487b7160e01b600052604160045260246000fd5b600181811c90821680611e8157607f821691505b602082108103610e2e57634e487b7160e01b600052602260045260246000fd5b601f821115611eeb57600081815260208120601f850160051c81016020861015611ec85750805b601f850160051c820191505b81811015611ee757828155600101611ed4565b5050505b505050565b815167ffffffffffffffff811115611f0a57611f0a611e57565b611f1e81611f188454611e6d565b84611ea1565b602080601f831160018114611f535760008415611f3b5750858301515b600019600386901b1c1916600185901b178555611ee7565b600085815260208120601f198616915b82811015611f8257888601518255948401946001909101908401611f63565b5085821015611fa05787850151600019600388901b60f8161c191681555b5050505050600190811b01905550565b606081528360608201528385608083013760006080858301015260006080601f19601f870116830101905083602083015282604083015295945050505050565b6020808252600e908201526d1c99595b9d1c985b9d0818d85b1b60921b604082015260600190565b60208082526010908201526f34b73b30b634b21031b0b6b830b4b3b760811b604082015260600190565b634e487b7160e01b600052603260045260246000fd5b8082018082111561206b5761206b611e28565b9291505056fea26469706673582212206679c1368858f607bee9cd2a26d9ea9ce52e1d6530b2f0a46e6810b85953730e64736f6c63430008130033",
  "linkReferences": {},
  "deployedLinkReferences": {}
}